{
  "contractName": "Indian",
  "abi": [
    {
      "constant": false,
      "inputs": [],
      "name": "buyGame",
      "outputs": [],
      "payable": true,
      "stateMutability": "payable",
      "type": "function"
    },
    {
      "constant": true,
      "inputs": [],
      "name": "getMyGame",
      "outputs": [
        {
          "name": "",
          "type": "uint16"
        }
      ],
      "payable": false,
      "stateMutability": "view",
      "type": "function"
    },
    {
      "constant": false,
      "inputs": [
        {
          "name": "_gamePrice",
          "type": "uint256"
        }
      ],
      "name": "sellMyGame",
      "outputs": [],
      "payable": true,
      "stateMutability": "payable",
      "type": "function"
    }
  ],
  "bytecode": "0x608060405234801561001057600080fd5b50610293806100206000396000f3fe6080604052600436106100345760003560e01c806302056c8b1461003957806349cd2abf1461006c5780639ef2cece14610076575b600080fd5b34801561004557600080fd5b5061004e6100a4565b604051808261ffff1661ffff16815260200191505060405180910390f35b6100746100f8565b005b6100a26004803603602081101561008c57600080fd5b810190808035906020019092919050505061016b565b005b60008060003373ffffffffffffffffffffffffffffffffffffffff1673ffffffffffffffffffffffffffffffffffffffff16815260200190815260200160002060009054906101000a900461ffff16905090565b6000803373ffffffffffffffffffffffffffffffffffffffff1673ffffffffffffffffffffffffffffffffffffffff168152602001908152602001600020600081819054906101000a900461ffff168092919060010191906101000a81548161ffff021916908361ffff16021790555050565b6000816000803373ffffffffffffffffffffffffffffffffffffffff1673ffffffffffffffffffffffffffffffffffffffff16815260200190815260200160002060009054906101000a900461ffff1661ffff1602905060008060003373ffffffffffffffffffffffffffffffffffffffff1673ffffffffffffffffffffffffffffffffffffffff16815260200190815260200160002060006101000a81548161ffff021916908361ffff1602179055503373ffffffffffffffffffffffffffffffffffffffff166108fc829081150290604051600060405180830381858888f19350505050158015610262573d6000803e3d6000fd5b50505056fea165627a7a723058203d28390074622abb4f6e3aabe1aebca60246d093f248552b9aab8afdb065d3f10029",
  "source": "pragma solidity ^0.5.0;\r\n\r\ncontract Indian {\r\n    mapping (address => uint16) myGame;\r\n\r\n    function buyGame() payable external {\r\n        myGame[msg.sender]++;\r\n    }\r\n\r\n    function getMyGame() view external returns(uint16) {\r\n        return myGame[msg.sender];\r\n    }\r\n\r\n    function sellMyGame(uint _gamePrice) payable external {\r\n        uint refund = (myGame[msg.sender] * _gamePrice);\r\n        myGame[msg.sender] = 0;\r\n        msg.sender.transfer(refund);\r\n    }\r\n}",
  "sourcePath": "C:/Users/sis32/indian/contracts/Indian.sol",
  "compiler": {
    "name": "solc",
    "version": "0.5.8+commit.23d335f2.Emscripten.clang"
  },
  "schemaVersion": "3.0.11",
  "updatedAt": "2019-08-27T08:48:13.013Z",
  "devdoc": {
    "methods": {}
  },
  "userdoc": {
    "methods": {}
  }
}