{
  "contractName": "Indian",
  "abi": [
    {
      "constant": false,
      "inputs": [],
      "name": "buyGame",
      "outputs": [],
      "payable": true,
      "stateMutability": "payable",
      "type": "function"
    },
    {
      "constant": true,
      "inputs": [],
      "name": "getMyGame",
      "outputs": [
        {
          "name": "",
          "type": "uint16"
        }
      ],
      "payable": false,
      "stateMutability": "view",
      "type": "function"
    },
    {
      "constant": false,
      "inputs": [
        {
          "name": "_gamePrice",
          "type": "uint256"
        }
      ],
      "name": "sellMyGame",
      "outputs": [],
      "payable": true,
      "stateMutability": "payable",
      "type": "function"
    },
    {
      "constant": false,
      "inputs": [],
      "name": "investGame",
      "outputs": [],
      "payable": true,
      "stateMutability": "payable",
      "type": "function"
    }
  ],
  "bytecode": "0x608060405234801561001057600080fd5b5061031b806100206000396000f3fe60806040526004361061003f5760003560e01c806302056c8b1461004457806349cd2abf146100775780639ef2cece14610081578063efa43c22146100af575b600080fd5b34801561005057600080fd5b506100596100b9565b604051808261ffff1661ffff16815260200191505060405180910390f35b61007f61010d565b005b6100ad6004803603602081101561009757600080fd5b8101908080359060200190929190505050610180565b005b6100b761027c565b005b60008060003373ffffffffffffffffffffffffffffffffffffffff1673ffffffffffffffffffffffffffffffffffffffff16815260200190815260200160002060009054906101000a900461ffff16905090565b6000803373ffffffffffffffffffffffffffffffffffffffff1673ffffffffffffffffffffffffffffffffffffffff168152602001908152602001600020600081819054906101000a900461ffff168092919060010191906101000a81548161ffff021916908361ffff16021790555050565b6000816000803373ffffffffffffffffffffffffffffffffffffffff1673ffffffffffffffffffffffffffffffffffffffff16815260200190815260200160002060009054906101000a900461ffff1661ffff1602905060008060003373ffffffffffffffffffffffffffffffffffffffff1673ffffffffffffffffffffffffffffffffffffffff16815260200190815260200160002060006101000a81548161ffff021916908361ffff1602179055503373ffffffffffffffffffffffffffffffffffffffff166108fc829081150290604051600060405180830381858888f19350505050158015610277573d6000803e3d6000fd5b505050565b6000803373ffffffffffffffffffffffffffffffffffffffff1673ffffffffffffffffffffffffffffffffffffffff168152602001908152602001600020600081819054906101000a900461ffff168092919060010191906101000a81548161ffff021916908361ffff1602179055505056fea165627a7a72305820818e483889da104510ee826e49e55f636e20a31054824220ba66ba545aef91450029",
  "source": "pragma solidity ^0.5.0;\r\n\r\ncontract Indian {\r\n    mapping (address => uint16) myGame;\r\n\r\n    function buyGame() payable external {\r\n        myGame[msg.sender]++;\r\n    }\r\n\r\n    function getMyGame() view external returns(uint16) {\r\n        return myGame[msg.sender];\r\n    }\r\n\r\n    function sellMyGame(uint _gamePrice) payable external {\r\n        uint refund = (myGame[msg.sender] * _gamePrice);\r\n        myGame[msg.sender] = 0;\r\n        msg.sender.transfer(refund);\r\n    }\r\n    function investGame() payable external {\r\n        myGame[msg.sender]++;\r\n    }\r\n}",
  "sourcePath": "C:/Users/sic61/indian2/contracts/Indian.sol",
  "compiler": {
    "name": "solc",
    "version": "0.5.8+commit.23d335f2.Emscripten.clang"
  },
  "schemaVersion": "3.0.16",
  "updatedAt": "2019-09-23T08:32:10.618Z",
  "devdoc": {
    "methods": {}
  },
  "userdoc": {
    "methods": {}
  }
}